:100000000C9434000C94D9040C94EF040C94F80470
:100010000C9451000C9451000C9451000C9451001C
:100020000C9451000C9451000C9451000C94010557
:100030000C9451000C9451000C9451000C945100FC
:100040000C9419050C9451000C9451000C9451001F
:100050000C94510055035C0363036A037103780336
:100060007F0386038D03940311241FBECFE5D8E0E0
:10007000DEBFCDBF10E0A0E6B0E0EAE7F7E102C0E6
:1000800005900D92A03AB107D9F720E0A0EAB0E0C0
:1000900001C01D92A83CB207E1F70E94F0080C9441
:1000A000BB0B0C940000CF93DF93CDB7DEB787E294
:1000B00090E027E230E0F90120812068FC012083F4
:1000C00087E290E027E230E0F90120812064FC0122
:1000D000208387E290E027E230E0F90120812E7F43
:1000E000FC01208387E290E027E230E0F9012081E3
:1000F0002D7FFC01208387E290E027E230E0F901C8
:1001000020812B7FFC01208387E290E027E230E012
:10011000F9012081277FFC01208387E290E027E21C
:1001200030E0F90120812F7EFC01208386E290E0FF
:1001300026E230E0F90120812460FC01208386E280
:1001400090E026E230E0F90120812260FC0120836A
:1001500086E290E026E230E0F90120812160FC0196
:1001600020830000DF91CF910895CF93DF93CDB727
:10017000DEB786E290E026E230E0F90120812068D7
:10018000FC01208386E290E026E230E0F901208144
:100190002064FC0120830000DF91CF910895CF936C
:1001A000DF93CDB7DEB786E290E026E230E0F901DA
:1001B00020812068FC01208386E290E026E230E086
:1001C000F90120812062FC0120830000DF91CF91A2
:1001D0000895CF93DF9300D0CDB7DEB79A8389839C
:1001E000000086E290E0FC018081882F90E0807121
:1001F0009927892BB1F384E290E0FC018081282FBC
:1002000030E089819A81FC013183208385E290E08E
:10021000FC018081882F90E0382F222789819A81E4
:10022000FC0180819181282B392B89819A81FC01E5
:100230003183208300000F900F90DF91CF910895BC
:10024000CF93DF9300D000D0CDB7DEB79C838B83F4
:10025000000086E290E0FC018081882F90E08071B0
:100260009927892BB1F384E290E0FC018081882FEB
:1002700090E09A83898385E290E0FC018081882F59
:1002800090E0982F88279C0189819A81822B932B5B
:100290009A83898389819A81969587959695879582
:1002A000282F8B819C81FC01208300000F900F90F0
:1002B0000F900F90DF91CF910895CF93DF93CDB73B
:1002C000DEB786E290E026E230E0F9012081286086
:1002D000FC0120830000DF91CF910895CF93DF933D
:1002E00000D000D0CDB7DEB79C838B83CE010196C2
:1002F0000E94E90089819A81CC01A0E0B0E0BC01B4
:10030000CD010E94970ADC01CB0120E030E040E201
:1003100050E4BC01CD010E944E0BDC01CB0120E07A
:1003200030E040E251E4BC01CD010E94F609DC015D
:10033000CB01BC01CD010E94680ADC01CB019C010C
:100340008B819C81FC013183208300000F900F90F2
:100350000F900F90DF91CF910895CF93DF9300D04E
:1003600000D0CDB7DEB78A836B834C8319828B8133
:10037000883008F0A4C08C81823008F0A0C08A8147
:10038000882F90E08130910581F1823091051CF435
:10039000892B49F090C08230910509F448C0039739
:1003A00009F467C088C08AE390E02AE330E0F901ED
:1003B0002081622F2B81422F50E021E030E002C0EB
:1003C000220F331F4A95E2F7209562232C81222FBA
:1003D00030E04B81442F50E002C0220F331F4A957A
:1003E000E2F7262BFC01208369C087E390E027E336
:1003F00030E0F9012081622F2B81422F50E021E073
:1004000030E002C0220F331F4A95E2F720956223A5
:100410002C81222F30E04B81442F50E002C0220F6C
:10042000331F4A95E2F7262BFC01208347C084E363
:1004300090E024E330E0F9012081622F2B81422FEC
:1004400050E021E030E002C0220F331F4A95E2F76E
:10045000209562232C81222F30E04B81442F50E0E5
:1004600002C0220F331F4A95E2F7262BFC0120839E
:1004700025C081E390E021E330E0F9012081622F83
:100480002B81422F50E021E030E002C0220F331FC9
:100490004A95E2F7209562232C81222F30E04B8190
:1004A000442F50E002C0220F331F4A95E2F7262B5B
:1004B000FC01208303C081E08983000002C081E049
:1004C000898389810F900F900F900F90DF91CF91CA
:1004D0000895CF93DF9300D000D0CDB7DEB78A83E5
:1004E0006B834C8319828B81883008F0A4C08C8187
:1004F000823008F0A0C08A81882F90E08130910579
:1005000081F1823091051CF4892B49F090C0823032
:10051000910509F448C0039709F467C088C08BE3CC
:1005200090E02BE330E0F9012081622F2B81422FF4
:1005300050E021E030E002C0220F331F4A95E2F77D
:10054000209562232C81222F30E04B81442F50E0F4
:1005500002C0220F331F4A95E2F7262BFC012083AD
:1005600069C088E390E028E330E0F9012081622F40
:100570002B81422F50E021E030E002C0220F331FD8
:100580004A95E2F7209562232C81222F30E04B819F
:10059000442F50E002C0220F331F4A95E2F7262B6A
:1005A000FC01208347C085E390E025E330E0F901BA
:1005B0002081622F2B81422F50E021E030E002C0E9
:1005C000220F331F4A95E2F7209562232C81222FB8
:1005D00030E04B81442F50E002C0220F331F4A9578
:1005E000E2F7262BFC01208325C082E390E022E382
:1005F00030E0F9012081622F2B81422F50E021E071
:1006000030E002C0220F331F4A95E2F720956223A3
:100610002C81222F30E04B81442F50E002C0220F6A
:10062000331F4A95E2F7262BFC01208303C081E0AB
:100630008983000002C081E0898389810F900F9037
:100640000F900F90DF91CF910895CF93DF93CDB7A7
:10065000DEB72C970FB6F894DEBF0FBECDBF8B87E9
:100660006C872AE0E8E6F0E0CE010196DC0101901B
:100670000D922A95E1F76FEF80E00E94AC038C8524
:10068000882F90E0092E000CAA0BBB0B40E050E035
:1006900029E030E0841B950B2817390708F44BC07C
:1006A000865D9F4FFC010C94EB0989818095682F32
:1006B0008B850E94E30346C08A818095682F8B85D5
:1006C0000E94E3033FC08B818095682F8B850E9439
:1006D000E30338C08C818095682F8B850E94E303EB
:1006E00031C08D818095682F8B850E94E3032AC0DD
:1006F0008E818095682F8B850E94E30323C08F81B4
:100700008095682F8B850E94E3031CC088858095A7
:10071000682F8B850E94E30315C089858095682F1B
:100720008B850E94E3030EC08A858095682F8B8598
:100730000E94E30307C089818095682F8B850E9402
:10074000E303000000002C960FB6F894DEBF0FBE46
:10075000CDBFDF91CF910895CF93DF9300D0CDB778
:10076000DEB789836A838981882F90E08130910583
:1007700091F0823091051CF4892B39F01EC0823033
:10078000910579F0039799F018C08AE390E02A81E7
:10079000FC01208312C087E390E02A81FC012083C2
:1007A0000CC084E390E02A81FC01208306C081E331
:1007B00090E02A81FC012083000000000F900F9040
:1007C000DF91CF910895CF93DF9300D0CDB7DEB7FF
:1007D00089836A838981882F90E08130910591F027
:1007E000823091051CF4892B39F01EC082309105AE
:1007F00079F0039799F018C08BE390E02A81FC010F
:10080000208312C088E390E02A81FC0120830CC081
:1008100085E390E02A81FC01208306C082E390E01A
:100820002A81FC012083000000000F900F90DF91CF
:10083000CF910895CF93DF9300D000D01F92CDB712
:10084000DEB78A836B835D834C8319828A81882F0C
:1008500090E08130910511F1823091051CF4892BD3
:1008600041F05BC08230910571F1039709F440C0FB
:1008700054C089E390E0FC018081882F90E02B81B7
:10088000222F30E002C0959587952A95E2F7282F10
:1008900021708C819D81FC01208341C086E390E022
:1008A000FC018081882F90E02B81222F30E002C054
:1008B000959587952A95E2F7282F21708C819D8147
:1008C000FC0120832CC083E390E0FC018081882F11
:1008D00090E02B81222F30E002C0959587952A95D4
:1008E000E2F7282F21708C819D81FC01208317C0A5
:1008F00080E390E0FC018081882F90E02B81222F03
:1009000030E002C0959587952A95E2F7282F21704F
:100910008C819D81FC01208302C081E089838981D3
:100920000F900F900F900F900F90DF91CF9108953F
:10093000CF93DF9300D01F92CDB7DEB79A83898320
:100940006B8389819A81892B69F18B81813031F4A4
:1009500089819A819093A1008093A0008B8182303D
:1009600031F489819A819093A3008093A2008B81B6
:10097000833031F489819A819093A5008093A400FB
:100980008B818B3031F489819A819093B50080936B
:10099000B4008B81803131F489819A819093BF00BA
:1009A0008093BE0000000F900F900F90DF91CF91C9
:1009B0000895CF93DF93CDB7DEB78091A0009091DB
:1009C000A100892B41F08091A0009091A100FC0131
:1009D00009950E942F050000DF91CF910895CF93D4
:1009E000DF93CDB7DEB70E942F05DF91CF91089539
:1009F000CF93DF93CDB7DEB70E942F05DF91CF9164
:100A00000895CF93DF93CDB7DEB78091B400909176
:100A1000B500892B51F08091B4009091B500FC0194
:100A200009950E94DA090E942F050000DF91CF91FD
:100A30000895CF93DF93CDB7DEB78091BE0090913C
:100A4000BF00892B41F08091BE009091BF00FC0156
:100A500009950E942F050000DF91CF910895CF9353
:100A6000DF93CDB7DEB78FE590E02FE530E0F901F9
:100A700020812068FC0120830000DF91CF91089540
:100A8000CF93DF9300D0CDB7DEB789836A838981A6
:100A9000882F90E0009721F0019709F460C0BEC054
:100AA0008A81882F90E081309105F9F0823091059C
:100AB0001CF4892B39F052C08230910549F103971B
:100AC000D1F14CC085E590E025E530E0F9012081C9
:100AD0002E7FFC01208385E590E025E530E0F901DB
:100AE00020812D7FFC01208339C085E590E025E53C
:100AF00030E0F90120812160FC01208385E590E050
:100B000025E530E0F90120812D7FFC01208326C0FE
:100B100085E590E025E530E0F90120812E7FFC019C
:100B2000208385E590E025E530E0F9012081226011
:100B3000FC01208313C085E590E025E530E0F90154
:100B400020812160FC01208385E590E025E530E0EF
:100B5000F90120812260FC01208300005FC08A81AE
:100B6000882F90E081309105F9F0823091051CF4D6
:100B7000892B39F052C08230910549F10397D1F1A8
:100B80004CC085E590E025E530E0F90120812B7F20
:100B9000FC01208385E590E025E530E0F901208126
:100BA000277FFC01208339C085E590E025E530E012
:100BB000F90120812460FC01208385E590E025E592
:100BC00030E0F9012081277FFC01208326C085E5E4
:100BD00090E025E530E0F90120812B7FFC012083A6
:100BE00085E590E025E530E0F90120812860FC01F1
:100BF000208313C085E590E025E530E0F9012081F0
:100C00002460FC01208385E590E025E530E0F901D2
:100C100020812860FC0120830000000000000F906C
:100C20000F90DF91CF910895CF93DF931F92CDB7AF
:100C3000DEB789838981882F90E08130910581F02A
:100C400082309105B9F0892B09F01EC08BE590E048
:100C50002BE530E0F90120812064FC01208314C0E1
:100C60008BE590E02BE530E0F90120812068FC0164
:100C700020830AC08BE590E02BE530E0F90120816C
:100C80002062FC012083000000000F90DF91CF91D3
:100C90000895CF93DF93CDB7DEB760EF82E00E9477
:100CA000AC036FEF82E00E94E3030000DF91CF917D
:100CB0000895CF93DF9300D000D01F92CDB7DEB759
:100CC0009D838C831A82E1C06FEF82E00E94E30370
:100CD0008A81882F90E08C599F4FFC01808140E0F1
:100CE000682F82E00E9469021982C8C08A81882F19
:100CF00090E0805A9F4FFC012081CE010396AC0109
:100D0000622F82E00E941A048B81882309F0B3C00D
:100D10000EC08A81882F90E0805A9F4FFC0120816D
:100D2000CE010396AC01622F82E00E941A048B81EF
:100D3000882379F38A81882F90E08130910581F1B1
:100D4000823091051CF4892B49F095C082309105C1
:100D500009F448C0039709F466C08DC089818823CF
:100D600029F48C819D8121E3FC01208389818130DC
:100D700029F48C819D8122E3FC01208389818230CA
:100D800029F48C819D8123E3FC01208389818330B8
:100D900009F06AC08C819D812BE2FC01208364C034
:100DA0008981882329F48C819D8124E3FC0120839F
:100DB0008981813029F48C819D8125E3FC01208388
:100DC0008981823029F48C819D8126E3FC01208376
:100DD0008981833009F04AC08C819D812DE2FC011C
:100DE000208344C08981882329F48C819D8127E355
:100DF000FC0120838981813029F48C819D8128E345
:100E0000FC0120838981823029F48C819D8129E332
:100E1000FC0120838981833059F58C819D812AE2F0
:100E2000FC01208325C08981882329F48C819D8140
:100E30002DE3FC0120838981813029F48C819D81FF
:100E40002FE2FC0120838981823029F48C819D81ED
:100E500020E3FC0120838981833061F48C819D81B2
:100E600020E3FC01208306C0000005C0000003C091
:100E7000000001C0000089818F5F898389818430EF
:100E800008F434CF8A818F5F8A838A81843008F4A2
:100E90001BCF00000F900F900F900F900F90DF91DD
:100EA000CF910895CF93DF93CDB7DEB72E970FB6CE
:100EB000F894DEBF0FBECDBF41E062E082E00E9449
:100EC000690240E062E082E00E94690280E090E016
:100ED000A8E4B2E489839A83AB83BC8320E030E04A
:100EE0004AEF54E469817A818B819C810E944E0B88
:100EF000DC01CB018D839E83AF83B88720E030E097
:100F000040E85FE36D817E818F8198850E94F109C1
:100F100088232CF481E090E09A8789873FC020E005
:100F20003FEF4FE757E46D817E818F8198850E9466
:100F3000490B18164CF520E030E040E251E469819D
:100F40007A818B819C810E944E0BDC01CB01BC011C
:100F5000CD010E94680ADC01CB019A8789870FC006
:100F600088EC90E09C878B878B859C850197F1F7B7
:100F70009C878B8789859A8501979A878987898538
:100F80009A85892B69F714C06D817E818F81988540
:100F90000E94680ADC01CB019A87898789859A8536
:100FA0009E878D878D859E850197F1F79E878D871A
:100FB00000002E960FB6F894DEBF0FBECDBFDF91B6
:100FC000CF910895CF93DF93CDB7DEB76FEF81E078
:100FD0000E94AC036FEF82E00E94AC0360E082E00D
:100FE0000E94E30388E30E94020881E00E94020855
:100FF0008CE00E94020880E80E9402080000DF9155
:10100000CF910895CF93DF931F92CDB7DEB7898339
:1010100040E060E082E00E946902698181E00E9414
:10102000E3030E94520700000F90DF91CF910895D3
:10103000CF93DF931F92CDB7DEB7898341E060E0A5
:1010400082E00E946902698181E00E94E3030E94BC
:10105000520700000F90DF91CF910895CF93DF9357
:1010600000D0CDB7DEB79A8389830BC089819A817E
:101070009C012F5F3F4F3A832983FC0180810E94AE
:10108000180889819A81FC018081882379F7000002
:101090000F900F90DF91CF910895CF93DF9300D001
:1010A0001F92CDB7DEB78A836B838A81982F929582
:1010B000990F990F907C8B81890F89838981806832
:1010C000898389810E94020800000F900F900F9081
:1010D000DF91CF910895CF93DF93CDB7DEB780E452
:1010E00090E0FC01108289E290E029E1FC0120837C
:1010F0008AE290E02AE230E0F90120812861FC01D7
:10110000208380E490E020E430E0F9012081266033
:10111000FC0120830000DF91CF910895CF93DF93EE
:101120001F92CDB7DEB7898300008BE290E0FC010F
:101130008081882F90E080729927892BB1F38CE20F
:1011400090E02981FC01208300000F90DF91CF9176
:101150000895CF93DF9300D0CDB7DEB79A8389830C
:1011600016C08091C6009091C7009C0189819A8128
:10117000820F931FFC0180810E948E088091C6001F
:101180009091C70001969093C7008093C60080910C
:10119000C6009091C7009C0189819A81820F931F9C
:1011A000FC0180818823E9F61092C7001092C600E6
:1011B00000000F900F90DF91CF910895CF93DF93B0
:1011C000CDB7DEB700008BE290E0FC018081882380
:1011D000D4F78CE290E0FC018081DF91CF910895FB
:1011E000CF93DF93CDB7DEB72E970FB6F894DEBF5F
:1011F0000FBECDBF0E946B088AE390E02FEFFC0189
:10120000208382E790E00E94A90880E090E0AAE7AE
:10121000B4E489839A83AB83BC8320E030E04AEF57
:1012200054E469817A818B819C810E944E0BDC01A0
:10123000CB018D839E83AF83B88720E030E040E808
:101240005FE36D817E818F8198850E94F1098823FB
:101250002CF481E090E09A8789873FC020E03FEF3F
:101260004FE757E46D817E818F8198850E94490BFD
:1012700018164CF520E030E040E251E469817A81B3
:101280008B819C810E944E0BDC01CB01BC01CD0106
:101290000E94680ADC01CB019A8789870FC088EC1D
:1012A00090E09C878B878B859C850197F1F79C87C5
:1012B0008B8789859A8501979A87898789859A85F9
:1012C000892B69F714C06D817E818F8198850E947A
:1012D000680ADC01CB019A87898789859A859E8770
:1012E0008D878D859E850197F1F79E878D8789CFA4
:1012F000CF93DF93CDB7DEB783E590E023E530E011
:10130000F90120812068FC01208383E590E023E53A
:1013100030E0F90120812F7BFC01208383E590E000
:1013200023E530E0F9012081277FFC01208383E55C
:1013300090E023E530E0F90120812E7FFC0120833D
:1013400083E590E023E530E0F90120812260FC0193
:10135000208383E590E023E530E0F90120812B7FB5
:10136000FC01208383E590E023E530E0F901208152
:101370002F7EFC01208383E590E023E530E0F90136
:1013800020812F7DFC0120830E94DA090000DF917B
:10139000CF910895CF93DF931F92CDB7DEB78983A6
:1013A00082E590E02981FC01208300000F90DF910D
:1013B000CF910895CF93DF93CDB7DEB789E590E065
:1013C00029E530E0F90120812160FC012083000043
:1013D000DF91CF910895EE0FFF1F0590F491E02D5E
:1013E00009940E94D40A08F481E008950E940A0A30
:1013F0000C940F0B0E94080B58F00E94010B40F058
:1014000029F45F3F29F00C94F80A51110C94430B16
:101410000C94FE0A0E94200B68F39923B1F3552324
:1014200091F3951B550BBB27AA27621773078407F7
:1014300038F09F5F5F4F220F331F441FAA1FA9F38D
:1014400035D00E2E3AF0E0E832D091505040E6957B
:10145000001CCAF72BD0FE2F29D0660F771F881FDC
:10146000BB1F261737074807AB07B0E809F0BB0BCF
:10147000802DBF01FF2793585F4F3AF09E3F5105E3
:1014800078F00C94F80A0C94430B5F3FE4F3983E19
:10149000D4F3869577956795B795F7959F5FC9F7CC
:1014A000880F911D9695879597F90895E1E0660F4D
:1014B000771F881FBB1F621773078407BA0720F0C6
:1014C000621B730B840BBA0BEE1F88F7E09508952F
:1014D0000E94280B88F09F5798F0B92F9927B75191
:1014E000B0F0E1F0660F771F881F991F1AF0BA95C8
:1014F000C9F714C0B13091F00E94420BB1E00895D9
:101500000C94420B672F782F8827B85F39F0B93FCA
:10151000CCF3869577956795B395D9F73EF490957A
:101520008095709561957F4F8F4F9F4F0895E894F8
:1015300009C097FB3EF490958095709561957F4F1B
:101540008F4F9F4F9923A9F0F92F96E9BB279395C9
:10155000F695879577956795B795F111F8CFFAF4D9
:10156000BB0F11F460FF1BC06F5F7F4F8F4F9F4F0A
:1015700016C0882311F096E911C0772321F09EE868
:10158000872F762F05C0662371F096E8862F70E0CE
:1015900060E02AF09A95660F771F881FDAF7880FA8
:1015A0009695879597F90895990F0008550FAA0BFE
:1015B000E0E8FEEF16161706E807F907C0F0121666
:1015C0001306E407F50798F0621B730B840B950B69
:1015D00039F40A2661F0232B242B252B21F40895BE
:1015E0000A2609F4A140A6958FEF811D811D08955B
:1015F00097F99F6780E870E060E008959FEF80ECC6
:10160000089500240A941616170618060906089568
:1016100000240A9412161306140605060895092ECE
:101620000394000C11F4882352F0BB0F40F4BF2B3D
:1016300011F460FF04C06F5F7F4F8F4F9F4F08957D
:1016400057FD9058440F551F59F05F3F71F0479573
:10165000880F97FB991F61F09F3F79F08795089558
:10166000121613061406551FF2CF4695F1DF08C077
:10167000161617061806991FF1CF86957105610594
:1016800008940895E894BB2766277727CB0197F93C
:1016900008950E94D40A08F48FEF08950E94610B08
:1016A0000C940F0B0E94010B38F00E94080B20F0E5
:1016B000952311F00C94F80A0C94FE0A11240C9452
:1016C000430B0E94200B70F3959FC1F3950F50E0E0
:1016D000551F629FF001729FBB27F00DB11D639FE4
:1016E000AA27F00DB11DAA1F649F6627B00DA11D8A
:1016F000661F829F2227B00DA11D621F739FB00D30
:10170000A11D621F839FA00D611D221F749F33279F
:10171000A00D611D231F849F600D211D822F762F38
:101720006A2F11249F5750409AF0F1F088234AF015
:10173000EE0FFF1FBB1F661F771F881F9150504081
:10174000A9F79E3F510580F00C94F80A0C94430BC6
:101750005F3FE4F3983ED4F3869577956795B79508
:10176000F795E7959F5FC1F7FE2B880F911D969522
:0A177000879597F90895F894FFCFCC
:10177A0000010203040506073F065B4F666D7D07FD
:10178A007F6F61686D6564206D6F68616D65642047
:10179A002F2061686D6564206B68616C6564202F19
:1017AA00206F6D657220202F2047686974680000D9
:00000001FF
